:100000000C94660E189518951895189518951895CE
:100010000C94710018951895189518950C94A407D0
:100020001895189518951895189518950C94A20D73
:100030001895189518951895189518951895189558
:100040001895189518951895189518951895189548
:10005000189518951895189544656275672D4D6F1C
:070060006465206F6E2000B3
:1000680018E0E6E8F1E0218127FF02C021E001C0A5
:1000780020E0322F40815181440F551F4083518326
:1000880007FB1EF4242F21602083000F332339F04F
:1000980022E030E1408142275327408351831A955B
:1000A80001F708950FEFE6E8F1E000830183089572
:1000B800089500E002BD02B500FDFDCF0DE005BDCD
:1000C80002B501FDFDCF0CE703BD09B7006809BF04
:1000D80009B70F7B09BF0895ECCFFA93EA932A93E7
:1000E8001A930A932FB7E8E8F1E0028101600283CE
:1000F8000381039503830A3029F400E00383028116
:1001080002600283048103950483043629F400E025
:1001180004830281046002830581039505830839FD
:1001280011F400E005830381023048F410E0E00F89
:10013800F11F0081002319F000810A9500832FBF69
:10014800099119912991E991F99118959A938A93AE
:10015800C80102C00E94C60CE199FCCF9FBB8EBBB0
:1001680001E00CBB0DB38991999108958A93822F70
:10017800EDDF081719F40AC00E94C60CE199FCCFFC
:100188008DBBF89404E00CBBE19A789489910895AA
:10019800EEE8F1E000E0048305830283038306E9C7
:1001A80011E00083118300E0068307830895AD0101
:1001B800EEE8F1E0268137812C34344010F000E07D
:1001C8001AC0A081B18122813381A20FB31F0C9381
:1001D800028113810F5F1F4F028313830C34144075
:1001E80018F000E002830383068117810F5F1F4F19
:1001F8000683178301E0DA010895AD01EEE8F1E026
:1002080006811781012B11F400E019C0A081B1818A
:1002180004811581A00FB11F0C912481312F2F5F0C
:100228003F4F248335832C34344018F020E0248356
:100238002583268137812150304026833783DA0190
:1002480008954A92BA93AA939A938A93B02F412E0B
:10025800C901A42FEEE8F1E026813781042F10E0D0
:10026800020F131F0D5F1F4F0D34144010F4A7FB2E
:1002780016F400E010C0042F0D5F99DF0B2F97DFF5
:10028800042D95DFAA2331F0FC010191CF018FDF06
:10029800AA95D1F701E089919991A991B9914990CD
:1002A80008959A928A926A925A924A92BA93AA9313
:1002B8009A938A932801C901DA014B016984EEE80F
:1002C800F1E006811781012B11F400E016C095DFDB
:1002D8000350F401008391DFF20100838EDFFC01FB
:1002E8000083F401808104C088DF0D938A956A94A5
:1002F800882311F06620C1F701E089919991A991AD
:10030800B99149905990699089909990219608954A
:100318008A927A926A925A924A92BA93AA939A9332
:100328008A9307E010E00E94AA00602FA2E3B1E0E0
:1003380008E611E086E096E028E060FB66F431E02C
:100348003C93F89440E0F80140834183FC014083EA
:100358004183789402C033E03C93669502960E5F21
:100368001F4F11962A9549F708E010E00E94AA004D
:10037800602F00E4202E01E0302EACE4B1E002E56D
:1003880011E02EEE35E04AEF042E45E0142E46E04B
:1003980060FB76F450E0F10150838FEFF801808321
:1003A8008183F90180838183F0015083518305C0E3
:1003B80052E0F10150835FEF5C93669552E0050EC1
:1003C80050E0151E2E5F3F4F0E5F1F4F119651E0F4
:1003D800250E50E0351E4A95D9F609E010E00E9436
:1003E800AA00602F0AE3002E01E0102E86E491E0B7
:1003F80049E656E0A1E8B6E076E060FB7EF400E06E
:10040800F00100830FEFFA01008301830283038365
:100418000D930D930D930C93139706C004E0F00110
:1004280000830FEFFC010083669514964C5F5F4FC5
:10043800019601E0000E00E0101E7A95F1F680E0CA
:10044800A0E6B1E00EEE402E05E0502E082F10E099
:10045800065F1F4F0E94AA000F3F09F40FE71C9187
:10046800101729F00C930FEFF20100830183839595
:1004780002E0400E00E0501E1196863038F380E10D
:1004880090E006E1402E06E0502E06E2602E06E0DF
:10049800702E08E0802E8C010E94AA00B02F8C01DB
:1004A8000F5F1F4F0E94AA00A02F0F3F0FEFB0074A
:1004B80011F4A0E0B0E0F201008111810A171B07D6
:1004C80061F0A083B183F894F30100811181A01732
:1004D800B10710F4A083B183789402E0600E00E0C5
:1004E800701E02E0400E00E0501E02968A9499F6B3
:1004F80089919991A991B991499059906990799068
:100508008990089500E00BBB00EC0ABB00E007BB34
:100518000FEF08BB00E005BB0FEF04BB0EEF01BBFC
:1005280000E002BB0FE107B907E806B9369A00E018
:100538000FBD09E00EBD00E21EE41BBD0ABD09B7F0
:10054800006109BFE5DE92980895BA93AA939A9339
:100558008A93A8EFB6E00C910355D9F0005209F53B
:10056800FD01818190E0FC01E45DFE4F00810130D6
:10057800FD0151F412810381012B11F011E001C03A
:1005880010E0082F13D00DC032812381082F66D0C8
:1005980008C0FD018181082FA6D0A801B901082F44
:1005A8004BD189919991A991B99108958A93802FF6
:1005B800212F0A3108F050C0602F70E0FB01E45D84
:1005C800FE4F0081013009F047C0883088F41123BC
:1005D80001E010E0482F31F00E947F0E15B3102B78
:1005E80015BB30C00E947F0E009515B31023F8CFBD
:1005F80031F4112311F0939A25C0939823C08C30BD
:10060800112301E010E0482F78F439F044500E949B
:100618007F0E12B3102B12BB15C044500E947F0EE0
:10062800009512B31023F7CF31F046500E947F0E89
:100638001BB3102B06C046500E947F0E00951BB3BB
:1006480010231BBBFB01EA5CF94F24A3082F4BD0F6
:10065800A801B901082FF0D089910895AA939A9317
:100668008A93A02F8901AA31D0F58A2F90E0FC0146
:10067800E45DFE4F2081233091F5880F991FFC011E
:10068800E45DFE4F00AB31AB003523EC120718F0E8
:100698000FEF1FEF18C0A80160E070E00FEF1FEF29
:1006A800139F9001149F102D210D361F059F100DCB
:1006B800211D361F049F002D110D261F361F40E5F2
:1006C80053EC0E94990EF894FC01E650FA4F00830F
:1006D80011837894012B19F4A6500A2FEED1899131
:1006E8009991A99108959A938A93402F0A3128F0F5
:1006F80000E010E020E030E06DC0602F70E0FB010A
:10070800E45DFE4F5081552361F05A9509F44AC0C3
:100718005A95A1F05A9509F44AC05A9509F44FC060
:1007280059C0FB01E45DFE4F0485002319F04FEF2B
:1007380053E002C040E050E08A01DCCF660F771F2B
:10074800FB01E65DFE4F80819181445150E0FA0142
:10075800E45DFE4FE4A9F0E0ED56F0406F2F660F20
:10076800660B8C01169F302D069F300D1F9F202D84
:10077800310D069F200D311D1E9F102D210D351F97
:100788000F9F100D211D351F0E9F002D110D251FC8
:10079800351F46ED53E060E070E00E94BC0E080F84
:1007A800191FA8CFFB01EA5CF94F04A1BECF660F61
:1007B800771FFB01E45DFE4F00A911A99BCF660FCF
:1007C800771F660F771FFB01E250FA4F00811181F6
:1007D800228133818991999108959A938A932497D4
:1007E800802F088301E090E0FC01E45DFE4F10815A
:1007F800143011F4698302E0FE01E00FF91F508301
:100808000395FE01E00FF91F40830395402F9E01D9
:1008180019E60EEF0E942501002329F0FC01E5539B
:10082800F94F908305C001E0FC01E553F94F0083BF
:100838002496899199910895BA93AA93202FECE66A
:10084800F7E009E60083218302E030E0D901A45DE6
:10085800BE4F1C91143011F4628303E0DF01A00F36
:10086800B31F5C930395E00FF31F40830395009338
:10087800500704E617E00E94790CA991B9910895F0
:100888003AD020916601622F70E0FB01E45DFE4FD3
:100898000685002331F5263028F436B301E010E050
:1008A800422F05C039B301E010E0422F46500E94A4
:1008B8007F0E032311F001E001C000E0102FECE2ED
:1008C800F1E0E20FF71F028D011759F0128F112383
:1008D80011F053E002C040E050E060E0225F022FD8
:1008E8007CDFECE2F1E002AD039502AF063010F0D8
:1008F80000E002AF08957A926A924A92BA93AA9354
:100908009A933699A9C0ACE2B1E004B115B1FD01E2
:1009180022A933A9200F311F22AB33AB03AD0395B6
:1009280003AF003408F497C0890146E00E94850EA1
:10093800380102AB13AB47B00FE1402290E0E40D61
:10094800F91F0489023009F058C0642D660FFD01B3
:10095800E60FF91F66A217A32EEE35E0260F391F02
:10096800F901408151814F3F0FEF500719F44FEFC4
:100978005FE702C04619510B64857585460F571FFE
:10098800448755871AF4519541955040483C50404A
:10099800A4F16082118394879587FD01E40DF91F06
:1009A80044A950E04D565040652F660F660B8301F1
:1009B800169F302D069F300D159F202D310D069F57
:1009C800200D311D149F102D210D391F059F100D6D
:1009D800211D391F049F002D110D291F391F46EDB8
:1009E80053E060E070E00E94BC0E060D171DA801E0
:1009F80060E070E0042D0C5EF0DE0FEF24B135B13D
:100A08002935324010F001E006C024B135B1243F49
:100A1800314008F400E0FD01E40DF91F10A10117B1
:100A280069F000A3002319F04FEF53E002C040E043
:100A380050E060E070E0042D0C5ECFDEFD0193AF66
:100A4800439492AB93AB06E0401608F0442407B1F8
:100A5800007E042907B9369A9991A991B9914990CC
:100A6800699079900895002379F00A9579F00A95AC
:100A780091F00A9591F00A95A9F00A95A9F00A95BE
:100A8800A9F00A95A9F0089500E401C000E815B39B
:100A9800102715BB089508E001C000E212B3102723
:100AA80012BB089500E4FACF00E8F8CF00E401C0D3
:100AB80000E81BB310271BBB0895002379F00A95A3
:100AC80079F00A9579F00A9579F00A9579F00A95FE
:100AD80079F00A9579F00A9579F00895AE98089515
:100AE800AF980895939808959598089596980895BD
:100AF80097980895DE980895DF980895002379F06F
:100B08000A9579F00A9579F00A9579F00A9579F0BD
:100B18000A9579F00A9579F00A9579F00895AE9AD0
:100B28000895AF9A0895939A0895959A0895969A74
:100B38000895979A0895DE9A0895DF9A08958A92FB
:100B48007A926A925A924A92BA93AA939A938A93F9
:100B58000091680610E0F801E45DFE4F0685043058
:100B680009F0AFC0F8942091680630E08901000FC1
:100B7800111F000F111FF801E759F94F40815181EA
:100B880062817381220F331FF901E759F94F00A9D8
:100B980011A97894202F212BE1F0C80100E015E37A
:100BA8002CE0299F302D289F202D310D199F200DD5
:100BB800311D189F102D210D301F0E94990EC8015C
:100BC800D901013307E5900705E0A00700E0B00769
:100BD80020F080E090E0A0E0B0E080906806682C0B
:100BE80077248301000F111F000F111FF801EA5C21
:100BF800F94F80839183A283B38329E6422E26E0AE
:100C0800522E400E511EF201008D118D228D338D12
:100C18000F3F4FEF14072407340729F40FEF1FEF96
:100C28002FEF3FE71CC0081719072A073B0729F4CD
:100C380000E010E020E030E012C0322F212F102F0A
:100C480000E0110F221F331F110F221F331FAC01A9
:100C5800BD010E94990E0050144020403040E6E348
:100C6800F6E0660C771CE60DF71D408D518D652F5B
:100C7800660F660B040F151F261F361F008F118F76
:100C88003AF410952095309501951F4F2F4F3F4FFF
:100C9800083C104020403040A4F0F201808F918F32
:100CA800A28FB38FAC01BD010EE0080D96DD00E008
:100CB8002091680632E0239FF001EA5CF94F008F2B
:100CC800018FE6E3F6E002A9039502AB063010F0C7
:100CD80000E002AB0DCCBA93AA938A938091F506F3
:100CE80002E0809FA6E0B6E0A00DB11DFD0140899D
:100CF8005189F001EA5FF94F20813181042F052BDA
:100D0800E9F42F3F0FEF300719F4082FACDE48C085
:100D1800022F032B09F444C005EE16E0000D111D47
:100D2800F801408151812F5F3F4FBA01620F731F55
:100D3800608371834617570798F1E7CF2F3F0FEF6E
:100D4800300719F4082FDADE2BC0022F032B41F1EC
:100D5800E5EEF6E0018900FF15C08F01000D111DB9
:100D6800F801608171812F5F3F4F0B01020E131E46
:100D7800008211826015710528F0FD0140A351A37E
:100D8800082FBCDEFD0100A111A1012B39F000A143
:100D980011A10150104000A311A302C0082F8DDE3D
:100DA800E5EEF6E000890395008B083028F000E0B6
:100DB800008B01890395018B8991A991B9910895B7
:100DC8009A928A927A926A925A924A92BA93AA9379
:100DD8009A938A9326B20FE32022E9E6F6E0DF0130
:100DE800DC960C910225522D5095502333240F0187
:100DF80000E3000E131CBF016A5A7F4FCF01CE9645
:100E08004F01DC010D911D912D913C910F5F1F4FFA
:100E18002F4F3F4F3C932E931E930E93D0010D916D
:100E28001C91012B59F1DC010D911D912D913C91E3
:100E3800013045E314074CE0240740E0340770F420
:100E4800D4014D905D906D907C90369527951795BF
:100E58000795401651066206730680F401E010E01B
:100E6800432D0E947F0E102F1095DF01DD960C9107
:100E780001230C9300E0D0010D930C9350FB0EF06E
:100E880042C0DF01DD960C9110E0432D0E948B0ECD
:100E9800017031F1DB010D911C910F5F1F4F1C9305
:100EA8000E93DC010D911D912D913C91083C40E081
:100EB80014072407340738F1D4010D931D932D939B
:100EC8003C93DB010D911C91D0010D931C93DC0127
:100ED8004D934D934D934C93DB014D934C9313C01D
:100EE80010E0DC011D931D931D931C93DB011D93E2
:100EF8001C9301E0432D0E947F0E102FDF01DD9629
:100F08000C91012B0C935695339404E0800E00E06D
:100F1800901E04966E5F7F4F02E0000E00E0101EE8
:100F280006E0301608F46DCF24AE89919991A99105
:100F3800B9914990599069907990899099900895BC
:100F48008A93FA93EA933A922A921A920A927A9395
:100F58006A935A934A933A932A931A930A938FB7A8
:100F6800BADE2EDF8FBF09911991299139914991E4
:100F78005991699179910990199029903990E9913D
:100F8800F99189911895BA93AA938A932797009112
:100F98005007002309F04DC002E30A93BE016F5FBA
:100FA8007F4F43EB57E09E012E5F3F4F8E010D5F51
:100FB8001F4F0E9455010023E1F1DE011396ECEF6B
:100FC800FFE704E015911D930A95E1F72981009147
:100FD800500710E0F801E459F84F2083E0E5F7E006
:100FE8000081039500830881002389F0E3EBF7E093
:100FF80011912091500730E0D901A459B84F1C93A2
:10100800A0E5B7E01C9113951C930A9589F780E039
:10101800DE011396082F10E00E5F1F4F0E94AA00F2
:101028000D9383958430B0F38E010D5F1F4F0E949E
:10103800790C27968991A991B991089502E010E059
:101048000E94AA000F3F41F503E010E00E94AA00A9
:101058000F3F11F504E010E00E94AA000F3FE1F4F1
:1010680005E010E00E94AA000F3FB1F401E010E093
:101078000E94AA000F3F29F424E101E010E00E9439
:10108800BA0006E010E00E94AA000F3F29F42EEFF4
:1010980006E010E00E94BA000895FA92EA92DA9205
:1010A800CA92BA92AA929A928A927A926A925A9218
:1010B8004A92BA93AA939A938A93A097FF2412E329
:1010C80000E00E94ED0D0CEF1FE70E94530E0E94F6
:1010D800250E0E948602B2DF0E9470000E94E50978
:1010E8000E94CC000FEF13EC29E001501040204083
:1010F800E1F700C0000008E7A02E01E0B02E01E0F3
:10110800F501048378948CE697E0A8EFB6E012C066
:101118000E94A90200E000934A07FF2059F40091B9
:101128008801002339F4F89401E000938801789449
:101138000E94A3050E944404FF20C1F12FEF3FEF56
:1011480000E00E945C000E94C60C00914A07002340
:1011580031F10C910A55F1F00B5119F00550B1F02D
:101168001BC000E000934A07789405E000938801CB
:1011780002C00E94C60C009188010023D1F7F894A0
:10118800F50100811181F801099506C0FF24F39447
:10119800F89402C0FF24789400E000934A0720E006
:1011A80030E000E00E945C00FF2041F6ECDE0E9487
:1011B800C60C00914A07002309F4AFCF0C910152E5
:1011C80041F1025209F440C0025009F48BC00D509D
:1011D800F1F1055009F457C00350C9F00E5009F455
:1011E8006EC0065009F470C0075031F00A9509F432
:1011F8005FC0045041F08CCFF894F5010081118153
:10120800F801099587CFFF24F394F89483CF789455
:1012180081CF00914A07023008F47CCFFD0101819B
:101228001C91011709F076CF789405E000938801A6
:1012380002C00E94C60C009188010023D1F7F894DF
:10124800F50102811381DCCF0E948C0163CFFD017F
:101258005180428088240CC082010E94AA0011E0BB
:10126800410E10E0511EFC01E80DF11F008383942C
:10127800FD010381801680F30093500704E617E010
:101288000E94790C47CFFD01518042808824FD01DE
:101298000381801608F03ECF9924E80DF91D2481BA
:1012A80082010E94BA0001E0400E591C8394EFCFDE
:1012B80000E0FC01008302E3018302E0DDCF0CE1E2
:1012C800FC01008300E0F8CF9C0102EF1FE74AE031
:1012D800F80155918F01F90151939F014A95C1F782
:1012E8000AE0CACFFD010481002309F413CFFE01EF
:1012F80000E210E011930A95E1F766247724FD01D6
:1013080051804280EE2418C0920101E0400E00E0B6
:10131800501E89010E94AA000F3F21F0F4010081AC
:101328000C290083D394FD010381D01668F301E0F2
:10133800600E00E0701EE3940481E01690F4DD2452
:1013480001E0462D47700E947A0EC02E4E0183019F
:10135800169507951695079516950795800E911E73
:10136800E2CF05E6FC010083FD010181FC01018358
:10137800FD010281FC010283FD010381FC0103835D
:1013880088240FEF600E701E7694679476946794A5
:101398007694679483010F5F1F4F202F212B71F0E4
:1013A80050E0FE01E80DF51F2081FC01E80DF51F56
:1013B8002483839499248016910690F3062D0B5F5D
:1013C8005BCF00E000BD03E309B900E10AB906EA12
:1013D80000BDEEE3F7E000E0058F028B0487048B85
:1013E8000FEF068B058B0783068305830483899A91
:1013F8008C9A949801E0028F02E003BF09B701605C
:1014080009BF0895BA93AA939A938A93AEE3B7E073
:1014180000E0FD0104875F9902C000E061C21BB1D2
:101428000CB11471D1F70C3F31F412A1112319F446
:1014380001E002A3F2CF14A1139514A30D3F99F470
:1014480000E004A3068F078F03E000A301E003A3D5
:1014580000E00383028301830C930E9456000DEF82
:101468000E943400DACF0E3F19F400E003A3D5CF71
:1014780012A1112319F0006810E012A313A111237F
:1014880061F2278D2430D0F40F3F19F010A11D7F91
:1014980010A330E0ECEFFFE7E20FF31F1491011700
:1014A80021F0FD0110A11E7F10A3FD01E20FF31F23
:1014B8000587FD01178D1395178FD2CFA9F410A1B9
:1014C80011FF02C011E001C010E0118B038B10A1C5
:1014D800112331F413891770133011F010E001C093
:1014E80011E013A315E0E8CF138913FF0BC01770A1
:1014F800133041F0293030F430E0E20FF31F359714
:101508000083D7CF2F3F21F01FEF178F01A3A8CF5C
:10151800268D30E0F901E850F94F00830E9434002D
:10152800FD01068D10E081A190E0019708171907C9
:10153800B1F400E000A30E94340000E00E943400EF
:10154800E6E8F1E000811181012B21F000E0FD01C6
:10155800048764CFFD0101A1048701E05FCF063451
:10156800A9F30395068F59CF08E00AB9949A5E9AB1
:1015780008EF0CB95E9BFECF00E10AB99498089574
:10158800442391F04A95F8015081F901608156177A
:1015980010F40FEF089551919F01F80161918F01A7
:1015A800561770F701E0089500E00895442341F0CC
:1015B8004A95F90151919F01F80151938F01C1F7A3
:1015C8000895BA93AA938A93AEE3B7E0FD01048520
:1015D800002311F000E083C015DF0023D9F3FD01DB
:1015E8002389022F0770033029F500E010E01487E3
:1015F800269526952695239504C0361759F7285021
:1016080003952223A9F0FD01E00FF11F6585ECEF9A
:10161800FFE7E00FF11F3491283078F70FEF48E02B
:10162800421B0E947F0E102F13230623101791F6DA
:1016380003E055C0022F01711189112329F00031EF
:1016480049F200E00487C6CF0031E1F52695237002
:10165800822F038907FF02C00FEF058B0589021748
:1016680041F544E09D012A5D3F4F8D0189DF00234C
:1016780001F500E0FD010487FD01058D063059F5EF
:10168800838982958F708695837044E09D018D01D2
:10169800065D1F4F75DF0023C1F4FD01018D06951E
:1016A8000370801791F403890779013191F402E0FE
:1016B80016C0FD01858B44E09D018D010A5D1F4F19
:1016C80075DFDACF27792131A1F200E0FD01048727
:1016D80006C001E004C01389117001E00127899157
:1016E800A991B99108950D3F21F00E3F11F00C3FDB
:1016F80061F41091B207112339F45D9B08C01CEF07
:101708001CB911E01093B2070F775D9902C000E091
:1017180008950CB95E9A00E00093B20701E00895BD
:10172800BA93AA939A938A93AEE3B7E0FD01008D2A
:101738000023B1F408E00AB9949A0E945600FD010A
:10174800008D0395008F00E005A3018D0779013115
:101758008D0111F40A5D01C0065D1F4F02871387D2
:10176800008D013049F45D9B0CC00DEF0CB902E00F
:10177800008F0DEF0E943400FD01008D0230D9F476
:1017880014C000E0ADC08285938510E0800F911FE2
:10179800FC010081A8DF0023A1F3FC0100810E9465
:1017A8003400FD0105A1039505A305A1043058F3F4
:1017B800008D0395008F008D033059F4818D082F1B
:1017C80092DF0023F1F204E0FD01008F082F0E9450
:1017D8003400FD01008D0430E9F4018D03FD14C0CF
:1017E80005E0008F1AC0E8EFFFE710E0E00FF11FF7
:1017F8008491082F78DF002321F2082F0E943400FB
:10180800FD0105A1039505A305A1083060F3008D2E
:101818000395008F008D053091F48289018D017147
:10182800013109F480E08E5F082F5DDF002309F4A1
:10183800A8CF06E0FD01008F082F0E943400FD01AB
:10184800008D063029F58289018D0171013199F4E5
:1018580080E011C010E0F801E459F84F9081092F99
:1018680042DF002309F48DCF092F0E943400FD01C7
:1018780007890395078B0789081760F300E00E9422
:10188800340000E00E943400FD01008D0395008FB4
:10189800008D073079F40091870125DF002311F0CE
:1018A80001E001C000E0002309F46BCF08E0FD016E
:1018B800008F02C0083051F40091860114DF002324
:1018C80009F45FCF09E0FD01008F02C0093039F447
:1018D8005E9B57CF00E10AB994980AE0008F01E0B7
:1018E80089919991A991B991089544E0980108E6E0
:1018F80017E05CCEBA93AA938A9380E0AEE3B7E090
:10190800FD01878B808F44E09D012C5F3F4F8D0147
:10191800065D1F4F35DE002309F080E844E021E82A
:1019280031E08D01065D1F4F2BDE002391F044E06E
:101938009D01265D3F4F8D010C5F1F4F37DEFD0176
:1019480004891689101719F403950370048B048908
:10195800068BFD01038D033089F4048925892295BE
:10196800207F220F102F110F122B182B1861118FA7
:10197800033010F000E001C00395048B8991A99110
:10198800B9910895BA93AA9300917C01002311F4A8
:101998000FEFD1C016DE033011F4E6DDF9CFABE569
:1019A800B7E01C915D97112391F01A9529F11A95CA
:1019B80009F464C01A9509F47CC01A9509F48DC01D
:1019C8001A9509F457C01A9509F491C0B2C00130AC
:1019D80029F401E05D960C935D97ABC052960C918B
:1019E8005297002309F4A5C002E05D960C93129764
:1019F80003E00C935B979DC05A960C915A9700236D
:101A080009F097C052960C9152970023E9F044E0F0
:101A18009D012A5D3F4F8D01065D1F4FB1DD0023FB
:101A280099F403E05B960C93539764DFF89402B73C
:101A380010E00F70000F000F00571E4F0D931C93FE
:101A48005496789403E00EC000E057960D930C93DB
:101A580013970C9114960295007F000F09610C935F
:101A6800149605E00C935D975BDE002309F461C0D2
:101A780000E0B0CF55DE0023D9F75BC0013009F490
:101A8800A8CF5A960C915A97002309F052C032DF1A
:101A980044E021E831E08D01065D1F4F71DD002330
:101AA80011F404E001C003E05D960C935D9738DE05
:101AB80040C036DE0023E9F106E05D960C935597A9
:101AC800F89402B710E00F70000F000F00571E4F78
:101AD8000D931C93199778942CC022DE002349F1AA
:101AE80000E05D960C931B970C93529722C0F894D4
:101AF800023029F400E052960C931B9617C001306F
:101B080031F400E052960C931B9601E00FC0189632
:101B18000D911C911997012B59F45B960C910A951C
:101B28000C935B97002331F302E05D960C935D976D
:101B380078945D960C91A991B9910895FA93EA93D6
:101B48002A931A930A932FB780990DC0EEE3F7E012
:101B580001E0028F02B70F71085D048F00E002BF39
:101B680008B7016008BFEEE3F7E0048D0A95048F1B
:101B780011F400E0028F00851185012B31F00085FA
:101B8800118501501040008711872FBF09911991C5
:101B98002991E991F9911895C7980FE811E001503A
:101BA8001040E9F700C00000C79A37C0C7980FE88F
:101BB80011E001501040E9F700C00000C79A0FE893
:101BC80011E001501040E9F700C000000895C798DF
:101BD80024C09A938A93902F812FBF9ADDDF99238F
:101BE80021F09A95E3DF9923E1F7D6DF882321F0E6
:101BF8008A95DCDF8823E1F7CFDFE9DF07B30078D8
:101C080007BB899199910895C6980FE811E0015092
:101C18001040E9F700C00000C69A0FE113E0015038
:101C28001040E9F700C000000895C6980FE811E0D9
:101C380001501040E9F700C00000C69AC0CFC6980E
:101C4800ECCFBA93AA939A938A93289760E0702F5F
:101C58007F70FE01462F50E041955040E40FF51F7C
:101C6800778344E00E94910E6395683080F3BE9AB2
:101C7800CBDFDE0188E09D91992321F09A95D5DF8D
:101C88009923E1F7C1DF8A95B1F7D9DF07B300746B
:101C980007BB289689919991A991B9910895F8015E
:101CA80010E020E030E040E00590002D433039F0AE
:101CB800322F212F102D00E043954430A8F30895CA
:101CC8000C94080F0BE20DBF01E00EBFC0EFD0E08F
:101CD8000E94DE0E002311F00E94EE0E0E945108B1
:101CE8000E94780E0C94640E0C94640E4A9512F0BF
:101CF800000FE1F708954A951AF0000F111FFBCF66
:101D080008954A951AF016950795FBCF08954A95B8
:101D18001AF015950795FBCF08954A952AF0369540
:101D2800279517950795F9CF0895002411241001D8
:101D3800E0E2EA9592F0001F111F221F331F001CDA
:101D4800111C221C331C041615062606370688F3B8
:101D5800041A150A260A370AECCF001F111F221F82
:101D6800331FA001B1010095109520953095089575
:101D7800FF27772312F4F16015D0332312F4F0957E
:101D880009D00E94990EF69508F404D0F69508F447
:101D980009C0089530952095109501951F4F2F4F34
:101DA8003F4F089570956095509541955F4F6F4FDF
:101DB8007F4F089501E0089520E006D0E9F70895DF
:101DC800259102D0E9F708952D9301501040202F56
:101DD800212B089582E19EE1FC0105911491FC01FB
:101DE8003296A591B491FC01349625913491422FF5
:101DF800432B19F0F901E4DF01C0DEDF06961EE18E
:101E08008E31910748F30895FFCF2D068601000013
:101E18005A002C011E1E01010101010101010101ED
:101E2800010101010000000000000202020202029A
:101E3800FFFFFFFFFFFF00000000000000000000A0
:101E4800000000000000000000000000000000008A
:101E5800000000000000000000000000000000007A
:101E68000000003C00000000100800FFFFFFFF001A
:0277F000320065
:00000001FF
